{
  "_format": "hh-sol-artifact-1",
  "contractName": "IndexSwap",
  "sourceName": "contracts/IndexSwap.sol",
  "abi": [
    {
      "inputs": [
        {
          "internalType": "address",
          "name": "_oracal",
          "type": "address"
        },
        {
          "internalType": "address",
          "name": "_outAssest",
          "type": "address"
        },
        {
          "internalType": "address",
          "name": "_pancakeSwapAddress",
          "type": "address"
        },
        {
          "internalType": "address",
          "name": "_vault",
          "type": "address"
        }
      ],
      "stateMutability": "nonpayable",
      "type": "constructor"
    },
    {
      "anonymous": false,
      "inputs": [
        {
          "indexed": true,
          "internalType": "address",
          "name": "owner",
          "type": "address"
        },
        {
          "indexed": true,
          "internalType": "address",
          "name": "spender",
          "type": "address"
        },
        {
          "indexed": false,
          "internalType": "uint256",
          "name": "value",
          "type": "uint256"
        }
      ],
      "name": "Approval",
      "type": "event"
    },
    {
      "anonymous": false,
      "inputs": [],
      "name": "LOG_PUBLIC_SWAP_ENABLED",
      "type": "event"
    },
    {
      "anonymous": false,
      "inputs": [
        {
          "indexed": true,
          "internalType": "address",
          "name": "previousOwner",
          "type": "address"
        },
        {
          "indexed": true,
          "internalType": "address",
          "name": "newOwner",
          "type": "address"
        }
      ],
      "name": "OwnershipTransferred",
      "type": "event"
    },
    {
      "anonymous": false,
      "inputs": [
        {
          "indexed": true,
          "internalType": "address",
          "name": "from",
          "type": "address"
        },
        {
          "indexed": true,
          "internalType": "address",
          "name": "to",
          "type": "address"
        },
        {
          "indexed": false,
          "internalType": "uint256",
          "name": "value",
          "type": "uint256"
        }
      ],
      "name": "Transfer",
      "type": "event"
    },
    {
      "inputs": [],
      "name": "VERSION_NUMBER",
      "outputs": [
        {
          "internalType": "uint256",
          "name": "",
          "type": "uint256"
        }
      ],
      "stateMutability": "view",
      "type": "function"
    },
    {
      "inputs": [
        {
          "internalType": "address",
          "name": "owner",
          "type": "address"
        },
        {
          "internalType": "address",
          "name": "spender",
          "type": "address"
        }
      ],
      "name": "allowance",
      "outputs": [
        {
          "internalType": "uint256",
          "name": "",
          "type": "uint256"
        }
      ],
      "stateMutability": "view",
      "type": "function"
    },
    {
      "inputs": [],
      "name": "amount1",
      "outputs": [
        {
          "internalType": "uint256",
          "name": "",
          "type": "uint256"
        }
      ],
      "stateMutability": "view",
      "type": "function"
    },
    {
      "inputs": [],
      "name": "amount2",
      "outputs": [
        {
          "internalType": "uint256",
          "name": "",
          "type": "uint256"
        }
      ],
      "stateMutability": "view",
      "type": "function"
    },
    {
      "inputs": [
        {
          "internalType": "address",
          "name": "spender",
          "type": "address"
        },
        {
          "internalType": "uint256",
          "name": "amount",
          "type": "uint256"
        }
      ],
      "name": "approve",
      "outputs": [
        {
          "internalType": "bool",
          "name": "",
          "type": "bool"
        }
      ],
      "stateMutability": "nonpayable",
      "type": "function"
    },
    {
      "inputs": [
        {
          "internalType": "address",
          "name": "account",
          "type": "address"
        }
      ],
      "name": "balanceOf",
      "outputs": [
        {
          "internalType": "uint256",
          "name": "",
          "type": "uint256"
        }
      ],
      "stateMutability": "view",
      "type": "function"
    },
    {
      "inputs": [
        {
          "internalType": "uint256",
          "name": "amount",
          "type": "uint256"
        }
      ],
      "name": "burn",
      "outputs": [],
      "stateMutability": "nonpayable",
      "type": "function"
    },
    {
      "inputs": [
        {
          "internalType": "address",
          "name": "account",
          "type": "address"
        },
        {
          "internalType": "uint256",
          "name": "amount",
          "type": "uint256"
        }
      ],
      "name": "burnFrom",
      "outputs": [],
      "stateMutability": "nonpayable",
      "type": "function"
    },
    {
      "inputs": [],
      "name": "currentRate",
      "outputs": [
        {
          "internalType": "uint256",
          "name": "numerator",
          "type": "uint256"
        },
        {
          "internalType": "uint256",
          "name": "denominator",
          "type": "uint256"
        }
      ],
      "stateMutability": "view",
      "type": "function"
    },
    {
      "inputs": [],
      "name": "decimals",
      "outputs": [
        {
          "internalType": "uint8",
          "name": "",
          "type": "uint8"
        }
      ],
      "stateMutability": "view",
      "type": "function"
    },
    {
      "inputs": [
        {
          "internalType": "address",
          "name": "spender",
          "type": "address"
        },
        {
          "internalType": "uint256",
          "name": "subtractedValue",
          "type": "uint256"
        }
      ],
      "name": "decreaseAllowance",
      "outputs": [
        {
          "internalType": "bool",
          "name": "",
          "type": "bool"
        }
      ],
      "stateMutability": "nonpayable",
      "type": "function"
    },
    {
      "inputs": [],
      "name": "getETH",
      "outputs": [
        {
          "internalType": "address",
          "name": "",
          "type": "address"
        }
      ],
      "stateMutability": "view",
      "type": "function"
    },
    {
      "inputs": [
        {
          "internalType": "address",
          "name": "crypto",
          "type": "address"
        }
      ],
      "name": "getPathForETH",
      "outputs": [
        {
          "internalType": "address[]",
          "name": "",
          "type": "address[]"
        }
      ],
      "stateMutability": "view",
      "type": "function"
    },
    {
      "inputs": [
        {
          "internalType": "address",
          "name": "token",
          "type": "address"
        }
      ],
      "name": "getPathForToken",
      "outputs": [
        {
          "internalType": "address[]",
          "name": "",
          "type": "address[]"
        }
      ],
      "stateMutability": "view",
      "type": "function"
    },
    {
      "inputs": [
        {
          "internalType": "address",
          "name": "spender",
          "type": "address"
        },
        {
          "internalType": "uint256",
          "name": "addedValue",
          "type": "uint256"
        }
      ],
      "name": "increaseAllowance",
      "outputs": [
        {
          "internalType": "bool",
          "name": "",
          "type": "bool"
        }
      ],
      "stateMutability": "nonpayable",
      "type": "function"
    },
    {
      "inputs": [],
      "name": "indexPrice",
      "outputs": [
        {
          "internalType": "uint256",
          "name": "",
          "type": "uint256"
        }
      ],
      "stateMutability": "view",
      "type": "function"
    },
    {
      "inputs": [
        {
          "internalType": "address[]",
          "name": "tokens",
          "type": "address[]"
        },
        {
          "internalType": "uint96[]",
          "name": "denorms",
          "type": "uint96[]"
        }
      ],
      "name": "initialize",
      "outputs": [],
      "stateMutability": "nonpayable",
      "type": "function"
    },
    {
      "inputs": [],
      "name": "initializeDefult",
      "outputs": [],
      "stateMutability": "nonpayable",
      "type": "function"
    },
    {
      "inputs": [
        {
          "internalType": "uint256",
          "name": "cryptoAmount",
          "type": "uint256"
        }
      ],
      "name": "investInFund",
      "outputs": [],
      "stateMutability": "payable",
      "type": "function"
    },
    {
      "inputs": [],
      "name": "name",
      "outputs": [
        {
          "internalType": "string",
          "name": "",
          "type": "string"
        }
      ],
      "stateMutability": "view",
      "type": "function"
    },
    {
      "inputs": [],
      "name": "owner",
      "outputs": [
        {
          "internalType": "address",
          "name": "",
          "type": "address"
        }
      ],
      "stateMutability": "view",
      "type": "function"
    },
    {
      "inputs": [],
      "name": "pancakeSwapRouter",
      "outputs": [
        {
          "internalType": "contract IUniswapV2Router02",
          "name": "",
          "type": "address"
        }
      ],
      "stateMutability": "view",
      "type": "function"
    },
    {
      "inputs": [],
      "name": "renounceOwnership",
      "outputs": [],
      "stateMutability": "nonpayable",
      "type": "function"
    },
    {
      "inputs": [],
      "name": "symbol",
      "outputs": [
        {
          "internalType": "string",
          "name": "",
          "type": "string"
        }
      ],
      "stateMutability": "view",
      "type": "function"
    },
    {
      "inputs": [],
      "name": "t1Supply",
      "outputs": [
        {
          "internalType": "uint256",
          "name": "",
          "type": "uint256"
        }
      ],
      "stateMutability": "view",
      "type": "function"
    },
    {
      "inputs": [],
      "name": "t1SupplyUSD",
      "outputs": [
        {
          "internalType": "uint256",
          "name": "",
          "type": "uint256"
        }
      ],
      "stateMutability": "view",
      "type": "function"
    },
    {
      "inputs": [],
      "name": "t2Supply",
      "outputs": [
        {
          "internalType": "uint256",
          "name": "",
          "type": "uint256"
        }
      ],
      "stateMutability": "view",
      "type": "function"
    },
    {
      "inputs": [],
      "name": "t2SupplyUSD",
      "outputs": [
        {
          "internalType": "uint256",
          "name": "",
          "type": "uint256"
        }
      ],
      "stateMutability": "view",
      "type": "function"
    },
    {
      "inputs": [],
      "name": "totalSupply",
      "outputs": [
        {
          "internalType": "uint256",
          "name": "",
          "type": "uint256"
        }
      ],
      "stateMutability": "view",
      "type": "function"
    },
    {
      "inputs": [],
      "name": "totalVaultValue",
      "outputs": [
        {
          "internalType": "uint256",
          "name": "",
          "type": "uint256"
        }
      ],
      "stateMutability": "view",
      "type": "function"
    },
    {
      "inputs": [
        {
          "internalType": "address",
          "name": "to",
          "type": "address"
        },
        {
          "internalType": "uint256",
          "name": "amount",
          "type": "uint256"
        }
      ],
      "name": "transfer",
      "outputs": [
        {
          "internalType": "bool",
          "name": "",
          "type": "bool"
        }
      ],
      "stateMutability": "nonpayable",
      "type": "function"
    },
    {
      "inputs": [
        {
          "internalType": "address",
          "name": "from",
          "type": "address"
        },
        {
          "internalType": "address",
          "name": "to",
          "type": "address"
        },
        {
          "internalType": "uint256",
          "name": "amount",
          "type": "uint256"
        }
      ],
      "name": "transferFrom",
      "outputs": [
        {
          "internalType": "bool",
          "name": "",
          "type": "bool"
        }
      ],
      "stateMutability": "nonpayable",
      "type": "function"
    },
    {
      "inputs": [
        {
          "internalType": "address",
          "name": "newOwner",
          "type": "address"
        }
      ],
      "name": "transferOwnership",
      "outputs": [],
      "stateMutability": "nonpayable",
      "type": "function"
    },
    {
      "inputs": [
        {
          "internalType": "uint256",
          "name": "_numerator",
          "type": "uint256"
        },
        {
          "internalType": "uint256",
          "name": "_denominator",
          "type": "uint256"
        }
      ],
      "name": "updateRate",
      "outputs": [],
      "stateMutability": "nonpayable",
      "type": "function"
    },
    {
      "inputs": [
        {
          "internalType": "uint256",
          "name": "tokenAmount",
          "type": "uint256"
        }
      ],
      "name": "withdrawFromFundNew",
      "outputs": [],
      "stateMutability": "payable",
      "type": "function"
    },
    {
      "stateMutability": "payable",
      "type": "receive"
    }
  ],
  "bytecode": "0x600880546001600160a01b031990811673ef73e58650868f316461936a092818d5df96102e179091556009805490911673d2ada2cc6f97cfc1045b1cf70b3149139ac5f2a217905560c0604052737130d2a12b9bcbfae4f2634d864a1ee1ce3ead9c6080908152732170ed0880ac9a755fd29b2688956bd959f933f860a0526200008e90600a90600262000211565b506040805180820190915260018082526020820152620000b390600c9060026200026e565b50348015620000c157600080fd5b5060405162002f0638038062002f06833981016040819052620000e491620003c0565b60405180604001604052806007815260200166494e4445584c5960c81b8152506040518060400160405280600381526020016209288b60eb1b8152508160039080519060200190620001389291906200030f565b5080516200014e9060049060208401906200030f565b5050506200016b62000165620001bb60201b60201c565b620001bf565b600680546001600160a01b03199081166001600160a01b0394851617909155601580548216958416959095179094556009805485169183169190911790556016805490931691161790556200045a565b3390565b600580546001600160a01b038381166001600160a01b0319831681179093556040519116919082907f8be0079c531659141344cd1fd0a4f28419497f9722a3daafe3b4186f6b6457e090600090a35050565b82600281019282156200025c579160200282015b828111156200025c57825182546001600160a01b0319166001600160a01b0390911617825560209092019160019091019062000225565b506200026a9291506200038c565b5090565b6001830191839082156200025c5791602002820160005b83821115620002cb57835183826101000a8154816001600160601b03021916908360ff1602179055509260200192600c01602081600b0104928301926001030262000285565b8015620003005782816101000a8154906001600160601b030219169055600c01602081600b01049283019260010302620002cb565b50506200026a9291506200038c565b8280546200031d906200041d565b90600052602060002090601f0160209004810192826200034157600085556200025c565b82601f106200035c57805160ff19168380011785556200025c565b828001600101855582156200025c579182015b828111156200025c5782518255916020019190600101906200036f565b5b808211156200026a57600081556001016200038d565b80516001600160a01b0381168114620003bb57600080fd5b919050565b60008060008060808587031215620003d757600080fd5b620003e285620003a3565b9350620003f260208601620003a3565b92506200040260408601620003a3565b91506200041260608601620003a3565b905092959194509250565b600181811c908216806200043257607f821691505b602082108114156200045457634e487b7160e01b600052602260045260246000fd5b50919050565b612a9c806200046a6000396000f3fe6080604052600436106102085760003560e01c806370a0823111610118578063a9059cbb116100a0578063ca0e7ed51161006f578063ca0e7ed51461058e578063dd62ed3e146105ae578063f2fde38b146105ce578063f400fde4146105ee578063f9f8bdb71461060457600080fd5b8063a9059cbb14610515578063afbc74b914610535578063b0849c1c1461054b578063b5e9c4df1461057857600080fd5b806381a8e605116100e757806381a8e6051461048f5780638da5cb5b146104a2578063955a333b146104c057806395d89b41146104e0578063a457c2d7146104f557600080fd5b806370a082311461040f578063715018a61461044557806379cc67901461045a5780638025e3031461047a57600080fd5b806318160ddd1161019b578063395093511161016a5780633950935114610386578063405abb41146103a657806342966c68146103c65780635bab42a1146103e65780636056530f146103f957600080fd5b806318160ddd1461031557806323b872dd1461032a578063245589951461034a578063313ce5671461036a57600080fd5b80630c2cd2cd116101d75780630c2cd2cd146102a557806310bace8c146102bc57806312b191d1146102d257806314f6c3be146102e857600080fd5b8063057bfcc71461021457806306fdde031461023d578063090442611461025f578063095ea7b31461027557600080fd5b3661020f57005b600080fd5b34801561022057600080fd5b5061022a60185481565b6040519081526020015b60405180910390f35b34801561024957600080fd5b50610252610634565b60405161023491906124ef565b34801561026b57600080fd5b5061022a601c5481565b34801561028157600080fd5b50610295610290366004612537565b6106c6565b6040519015158152602001610234565b3480156102b157600080fd5b506102ba6106de565b005b3480156102c857600080fd5b5061022a60075481565b3480156102de57600080fd5b5061022a601a5481565b3480156102f457600080fd5b506102fd610a4b565b6040516001600160a01b039091168152602001610234565b34801561032157600080fd5b5060025461022a565b34801561033657600080fd5b50610295610345366004612563565b610abe565b34801561035657600080fd5b506006546102fd906001600160a01b031681565b34801561037657600080fd5b5060405160128152602001610234565b34801561039257600080fd5b506102956103a1366004612537565b610ae2565b3480156103b257600080fd5b506102ba6103c13660046125a4565b610b04565b3480156103d257600080fd5b506102ba6103e13660046125c6565b610b23565b6102ba6103f43660046125c6565b610b30565b34801561040557600080fd5b5061022a60195481565b34801561041b57600080fd5b5061022a61042a3660046125df565b6001600160a01b031660009081526020819052604090205490565b34801561045157600080fd5b506102ba611443565b34801561046657600080fd5b506102ba610475366004612537565b611479565b34801561048657600080fd5b5061022a600181565b6102ba61049d3660046125c6565b611492565b3480156104ae57600080fd5b506005546001600160a01b03166102fd565b3480156104cc57600080fd5b506102ba6104db366004612648565b6116f3565b3480156104ec57600080fd5b506102526119e8565b34801561050157600080fd5b50610295610510366004612537565b6119f7565b34801561052157600080fd5b50610295610530366004612537565b611a72565b34801561054157600080fd5b5061022a601d5481565b34801561055757600080fd5b5061056b6105663660046125df565b611a80565b60405161023491906126f8565b34801561058457600080fd5b5061022a601b5481565b34801561059a57600080fd5b5061056b6105a93660046125df565b611b77565b3480156105ba57600080fd5b5061022a6105c936600461270b565b611c40565b3480156105da57600080fd5b506102ba6105e93660046125df565b611c6b565b3480156105fa57600080fd5b5061022a60175481565b34801561061057600080fd5b5060135460145461061f919082565b60408051928352602083019190915201610234565b60606003805461064390612744565b80601f016020809104026020016040519081016040528092919081815260200182805461066f90612744565b80156106bc5780601f10610691576101008083540402835291602001916106bc565b820191906000526020600020905b81548152906001019060200180831161069f57829003601f168201915b5050505050905090565b6000336106d4818585611d03565b5060019392505050565b6005546001600160a01b031633146107115760405162461bcd60e51b81526004016107089061277f565b60405180910390fd5b6002600080805b838110156109fd576040805160c0810182526001815264ffffffffff42166020820152908101600c8360028110610751576107516127b4565b60029182820401919006600c029054906101000a90046001600160601b03166001600160601b03168152602001600c8360028110610791576107916127b4565b60029182820401919006600c029054906101000a90046001600160601b03166001600160601b031681526020018260ff1681526020016000815250600e6000600a84600281106107e3576107e36127b4565b01546001600160a01b0316815260208082019290925260409081016000208351815493850151928501516060860151608087015165ffffffffffff1990961692151565ffffffffff0019169290921761010064ffffffffff90951694909402939093176601000000000000600160f01b031916600160301b6001600160601b03948516026bffffffffffffffffffffffff60901b191617600160901b93909116929092029190911760ff60f01b1916600160f01b60ff9093169290920291909117815560a090910151600190910155600d600a82600281106108c7576108c76127b4565b015481546001810183556000928352602083200180546001600160a01b0319166001600160a01b03928316179055601554600d8054919092169163afa998609185908110610917576109176127b4565b60009182526020909120015460165460405160e084901b6001600160e01b03191681526001600160a01b03928316600482015291166024820152604401602060405180830381865afa158015610971573d6000803e3d6000fd5b505050506040513d601f19601f8201168201806040525081019061099591906127ca565b90506109a18382611e28565b92506109e784600c84600281106109ba576109ba6127b4565b60029182820401919006600c029054906101000a90046001600160601b03166001600160601b0316611e3b565b93505080806109f5906127f9565b915050610718565b50600f829055610a0d8184611e8d565b6010556012805460ff191660011790556040517f183bed17d33ee5be9a47bb997aee6a152d84a34309cdb66f76301de0a40a138990600090a1505050565b600654604080516315ab88c960e31b815290516000926001600160a01b03169163ad5c46489160048083019260209291908290030181865afa158015610a95573d6000803e3d6000fd5b505050506040513d601f19601f82011682018060405250810190610ab99190612814565b905090565b600033610acc858285611e99565b610ad7858585611f0d565b506001949350505050565b6000336106d4818585610af58383611c40565b610aff9190612831565b611d03565b81610b0e57600080fd5b80610b1857600080fd5b601391909155601455565b610b2d33826120db565b50565b348160008080610b3f60025490565b1115610d6057600d5460005b81811015610d5d576000600d8281548110610b6857610b686127b4565b60009182526020822001546009546040516370a0823160e01b81526001600160a01b0391821660048201529116925082906370a0823190602401602060405180830381865afa158015610bbf573d6000803e3d6000fd5b505050506040513d601f19601f82011682018060405250810190610be391906127ca565b9050600d8381548110610bf857610bf86127b4565b6000918252602090912001546001600160a01b0316600a8460028110610c2057610c206127b4565b0180546001600160a01b0319166001600160a01b03928316179055601554600d8054600093929092169163afa99860919087908110610c6157610c616127b4565b60009182526020909120015460165460405160e084901b6001600160e01b03191681526001600160a01b03928316600482015291166024820152604401602060405180830381865afa158015610cbb573d6000803e3d6000fd5b505050506040513d601f19601f82011682018060405250810190610cdf91906127ca565b9050610cf5610cee8284612221565b8790611e28565b955060008611610d475760405162461bcd60e51b815260206004820152601f60248201527f73756d207072696365206973206e6f742067726561746572207468616e2030006044820152606401610708565b5050508080610d55906127f9565b915050610b4b565b50505b6000610d6b60025490565b1115611064576000600d600081548110610d8757610d876127b4565b6000918252602090912001546009546040516370a0823160e01b81526001600160a01b0391821660048201529116915081906370a0823190602401602060405180830381865afa158015610ddf573d6000803e3d6000fd5b505050506040513d601f19601f82011682018060405250810190610e0391906127ca565b6019819055600654600d80546001600160a01b039092169263d06ca61f929091610e5091600090610e3657610e366127b4565b6000918252602090912001546001600160a01b0316611b77565b6040518363ffffffff1660e01b8152600401610e6d929190612849565b600060405180830381865afa158015610e8a573d6000803e3d6000fd5b505050506040513d6000823e601f3d908101601f19168201604052610eb29190810190612878565b600181518110610ec457610ec46127b4565b6020026020010151601a819055506000600d600181548110610ee857610ee86127b4565b6000918252602090912001546009546040516370a0823160e01b81526001600160a01b0391821660048201529116915081906370a0823190602401602060405180830381865afa158015610f40573d6000803e3d6000fd5b505050506040513d601f19601f82011682018060405250810190610f6491906127ca565b601b819055600654600d80546001600160a01b039092169263d06ca61f929091610f99916001908110610e3657610e366127b4565b6040518363ffffffff1660e01b8152600401610fb6929190612849565b600060405180830381865afa158015610fd3573d6000803e3d6000fd5b505050506040513d6000823e601f3d908101601f19168201604052610ffb9190810190612878565b60018151811061100d5761100d6127b4565b6020908102919091010151601c819055601a5461102991611e28565b601d819055601a546110469190611040908a612221565b90611e8d565b601755601d54601c5461105e9190611040908a612221565b60185550505b600061107142600f612831565b905060005b600d54811015611316576000600d8281548110611095576110956127b4565b60009182526020808320909101546001600160a01b0316808352600e82526040808420815160c081018352815460ff8082161515835264ffffffffff610100830416968301969096526001600160601b03600160301b8204811694830194909452600160901b81049093166060820152600160f01b90920490931660808201526001929092015460a083015292509061112d60025490565b61115e57611157600f5461104084604001516001600160601b03168c61222190919063ffffffff16565b9050611171565b8361116c5750601754611171565b506018545b6006546060906001600160a01b0316637ff36ab583600061119188611a80565b6009546040516001600160e01b031960e087901b1681526111c29392916001600160a01b0316908d90600401612936565b60006040518083038185885af11580156111e0573d6000803e3d6000fd5b50505050506040513d6000823e601f3d908101601f191682016040526112099190810190612878565b601554600d80549293506000926001600160a01b039092169163afa99860919089908110611239576112396127b4565b60009182526020909120015460165460405160e084901b6001600160e01b03191681526001600160a01b03928316600482015291166024820152604401602060405180830381865afa158015611293573d6000803e3d6000fd5b505050506040513d601f19601f820116820180604052508101906112b791906127ca565b90506112fc6112f5670de0b6b3a7640000611040856001815181106112de576112de6127b4565b60200260200101518561222190919063ffffffff16565b8a90611e28565b98505050505050808061130e906127f9565b915050611076565b50838311156113825760405162461bcd60e51b815260206004820152603260248201527f616d6f756e7420616674657220736c6970706167652063616e27742062652067604482015271726561746572207468616e206265666f726560701b6064820152608401610708565b600061138d60025490565b11156113a45761139d838361222d565b93506113a8565b8293505b6113b23385612263565b604051600090339047908381818185875af1925050503d80600081146113f4576040519150601f19603f3d011682016040523d82523d6000602084013e6113f9565b606091505b505090508061143a5760405162461bcd60e51b815260206004820152600d60248201526c1c99599d5b990819985a5b1959609a1b6044820152606401610708565b50505050505050565b6005546001600160a01b0316331461146d5760405162461bcd60e51b81526004016107089061277f565b6114776000612342565b565b611484823383611e99565b61148e82826120db565b5050565b336000908152602081905260409020548111156114df5760405162461bcd60e51b815260206004820152600b60248201526a6e6f742062616c616e636560a81b6044820152606401610708565b60006114ec42600f612831565b905060006114f960025490565b905061150533846120db565b60005b600d548110156116ed576000600d8281548110611527576115276127b4565b60009182526020822001546009546040516370a0823160e01b81526001600160a01b0391821660048201529116925082919082906370a0823190602401602060405180830381865afa158015611581573d6000803e3d6000fd5b505050506040513d601f19601f820116820180604052508101906115a591906127ca565b905060006115b786611040848b612221565b600854604051630151d76f60e11b8152306004820152602481018390526001600160a01b0387811660448301529293509116906302a3aede906064016020604051808303816000875af1158015611612573d6000803e3d6000fd5b505050506040513d601f19601f82011682018060405250810190611636919061296b565b5060065461164f9085906001600160a01b031683612394565b6006546001600160a01b03166318cbafe582600061166c88611b77565b338c6040518663ffffffff1660e01b815260040161168e95949392919061298d565b6000604051808303816000875af11580156116ad573d6000803e3d6000fd5b505050506040513d6000823e601f3d908101601f191682016040526116d59190810190612878565b505050505080806116e5906127f9565b915050611508565b50505050565b6005546001600160a01b0316331461171d5760405162461bcd60e51b81526004016107089061277f565b600d541561175b5760405162461bcd60e51b815260206004820152600b60248201526a125392551250531256915160aa1b6044820152606401610708565b826000805b8281101561199e576040805160c0810182526001815264ffffffffff42166020820152908101868684818110611798576117986127b4565b90506020020160208101906117ad91906129c9565b6001600160601b031681526020018686848181106117cd576117cd6127b4565b90506020020160208101906117e291906129c9565b6001600160601b031681526020018260ff1681526020016000815250600e6000898985818110611814576118146127b4565b905060200201602081019061182991906125df565b6001600160a01b0316815260208082019290925260409081016000208351815493850151928501516060860151608087015165ffffffffffff1990961692151565ffffffffff0019169290921761010064ffffffffff90951694909402939093176601000000000000600160f01b031916600160301b6001600160601b03948516026bffffffffffffffffffffffff60901b191617600160901b93909116929092029190911760ff60f01b1916600160f01b60ff9093169290920291909117815560a090910151600190910155600d87878381811061190a5761190a6127b4565b905060200201602081019061191f91906125df565b81546001810183556000928352602090922090910180546001600160a01b0319166001600160a01b0390921691909117905561198a82868684818110611967576119676127b4565b905060200201602081019061197c91906129c9565b6001600160601b0316611e3b565b915080611996816127f9565b915050611760565b50600f8190556012805460ff191660019081179091556010556040517f183bed17d33ee5be9a47bb997aee6a152d84a34309cdb66f76301de0a40a138990600090a1505050505050565b60606004805461064390612744565b60003381611a058286611c40565b905083811015611a655760405162461bcd60e51b815260206004820152602560248201527f45524332303a2064656372656173656420616c6c6f77616e63652062656c6f77604482015264207a65726f60d81b6064820152608401610708565b610ad78286868403611d03565b6000336106d4818585611f0d565b604080516002808252606080830184529260009291906020830190803683375050600654604080516315ab88c960e31b815290519394506001600160a01b039091169263ad5c4648925060048083019260209291908290030181865afa158015611aee573d6000803e3d6000fd5b505050506040513d601f19601f82011682018060405250810190611b129190612814565b81600081518110611b2557611b256127b4565b60200260200101906001600160a01b031690816001600160a01b0316815250508281600181518110611b5957611b596127b4565b6001600160a01b039092166020928302919091019091015292915050565b604080516002808252606080830184529260009291906020830190803683370190505090508281600081518110611bb057611bb06127b4565b6001600160a01b03928316602091820292909201810191909152600654604080516315ab88c960e31b81529051919093169263ad5c46489260048083019391928290030181865afa158015611c09573d6000803e3d6000fd5b505050506040513d601f19601f82011682018060405250810190611c2d9190612814565b81600181518110611b5957611b596127b4565b6001600160a01b03918216600090815260016020908152604080832093909416825291909152205490565b6005546001600160a01b03163314611c955760405162461bcd60e51b81526004016107089061277f565b6001600160a01b038116611cfa5760405162461bcd60e51b815260206004820152602660248201527f4f776e61626c653a206e6577206f776e657220697320746865207a65726f206160448201526564647265737360d01b6064820152608401610708565b610b2d81612342565b6001600160a01b038316611d655760405162461bcd60e51b8152602060048201526024808201527f45524332303a20617070726f76652066726f6d20746865207a65726f206164646044820152637265737360e01b6064820152608401610708565b6001600160a01b038216611dc65760405162461bcd60e51b815260206004820152602260248201527f45524332303a20617070726f766520746f20746865207a65726f206164647265604482015261737360f01b6064820152608401610708565b6001600160a01b0383811660008181526001602090815260408083209487168084529482529182902085905590518481527f8c5be1e5ebec7d5bd14f71427d1e84f3dd0314c0f7b2291e5b200ac8c7c3b92591015b60405180910390a3505050565b6000611e348284612831565b9392505050565b600080611e488385612831565b905083811015611e345760405162461bcd60e51b815260206004820152601060248201526f4552525f4144445f4f564552464c4f5760801b6044820152606401610708565b6000611e3482846129f2565b6000611ea58484611c40565b905060001981146116ed5781811015611f005760405162461bcd60e51b815260206004820152601d60248201527f45524332303a20696e73756666696369656e7420616c6c6f77616e63650000006044820152606401610708565b6116ed8484848403611d03565b6001600160a01b038316611f715760405162461bcd60e51b815260206004820152602560248201527f45524332303a207472616e736665722066726f6d20746865207a65726f206164604482015264647265737360d81b6064820152608401610708565b6001600160a01b038216611fd35760405162461bcd60e51b815260206004820152602360248201527f45524332303a207472616e7366657220746f20746865207a65726f206164647260448201526265737360e81b6064820152608401610708565b6001600160a01b0383166000908152602081905260409020548181101561204b5760405162461bcd60e51b815260206004820152602660248201527f45524332303a207472616e7366657220616d6f756e7420657863656564732062604482015265616c616e636560d01b6064820152608401610708565b6001600160a01b03808516600090815260208190526040808220858503905591851681529081208054849290612082908490612831565b92505081905550826001600160a01b0316846001600160a01b03167fddf252ad1be2c89b69c2b068fc378daa952ba7f163c4a11628f55a4df523b3ef846040516120ce91815260200190565b60405180910390a36116ed565b6001600160a01b03821661213b5760405162461bcd60e51b815260206004820152602160248201527f45524332303a206275726e2066726f6d20746865207a65726f206164647265736044820152607360f81b6064820152608401610708565b6001600160a01b038216600090815260208190526040902054818110156121af5760405162461bcd60e51b815260206004820152602260248201527f45524332303a206275726e20616d6f756e7420657863656564732062616c616e604482015261636560f01b6064820152608401610708565b6001600160a01b03831660009081526020819052604081208383039055600280548492906121de908490612a14565b90915550506040518281526000906001600160a01b038516907fddf252ad1be2c89b69c2b068fc378daa952ba7f163c4a11628f55a4df523b3ef90602001611e1b565b6000611e348284612a2b565b60008061223960025490565b905061225b83611040670de0b6b3a76400006122558886612221565b90612221565b949350505050565b6001600160a01b0382166122b95760405162461bcd60e51b815260206004820152601f60248201527f45524332303a206d696e7420746f20746865207a65726f2061646472657373006044820152606401610708565b80600260008282546122cb9190612831565b90915550506001600160a01b038216600090815260208190526040812080548392906122f8908490612831565b90915550506040518181526001600160a01b038316906000907fddf252ad1be2c89b69c2b068fc378daa952ba7f163c4a11628f55a4df523b3ef9060200160405180910390a35050565b600580546001600160a01b038381166001600160a01b0319831681179093556040519116919082907f8be0079c531659141344cd1fd0a4f28419497f9722a3daafe3b4186f6b6457e090600090a35050565b604080516001600160a01b038481166024830152604480830185905283518084039091018152606490920183526020820180516001600160e01b031663095ea7b360e01b17905291516000928392908716916123f09190612a4a565b6000604051808303816000865af19150503d806000811461242d576040519150601f19603f3d011682016040523d82523d6000602084013e612432565b606091505b509150915081801561245c57508051158061245c57508080602001905181019061245c919061296b565b6124bc5760405162461bcd60e51b815260206004820152602b60248201527f5472616e7366657248656c7065723a3a73616665417070726f76653a2061707060448201526a1c9bdd994819985a5b195960aa1b6064820152608401610708565b5050505050565b60005b838110156124de5781810151838201526020016124c6565b838111156116ed5750506000910152565b602081526000825180602084015261250e8160408501602087016124c3565b601f01601f19169190910160400192915050565b6001600160a01b0381168114610b2d57600080fd5b6000806040838503121561254a57600080fd5b823561255581612522565b946020939093013593505050565b60008060006060848603121561257857600080fd5b833561258381612522565b9250602084013561259381612522565b929592945050506040919091013590565b600080604083850312156125b757600080fd5b50508035926020909101359150565b6000602082840312156125d857600080fd5b5035919050565b6000602082840312156125f157600080fd5b8135611e3481612522565b60008083601f84011261260e57600080fd5b50813567ffffffffffffffff81111561262657600080fd5b6020830191508360208260051b850101111561264157600080fd5b9250929050565b6000806000806040858703121561265e57600080fd5b843567ffffffffffffffff8082111561267657600080fd5b612682888389016125fc565b9096509450602087013591508082111561269b57600080fd5b506126a8878288016125fc565b95989497509550505050565b600081518084526020808501945080840160005b838110156126ed5781516001600160a01b0316875295820195908201906001016126c8565b509495945050505050565b602081526000611e3460208301846126b4565b6000806040838503121561271e57600080fd5b823561272981612522565b9150602083013561273981612522565b809150509250929050565b600181811c9082168061275857607f821691505b6020821081141561277957634e487b7160e01b600052602260045260246000fd5b50919050565b6020808252818101527f4f776e61626c653a2063616c6c6572206973206e6f7420746865206f776e6572604082015260600190565b634e487b7160e01b600052603260045260246000fd5b6000602082840312156127dc57600080fd5b5051919050565b634e487b7160e01b600052601160045260246000fd5b600060001982141561280d5761280d6127e3565b5060010190565b60006020828403121561282657600080fd5b8151611e3481612522565b60008219821115612844576128446127e3565b500190565b82815260406020820152600061225b60408301846126b4565b634e487b7160e01b600052604160045260246000fd5b6000602080838503121561288b57600080fd5b825167ffffffffffffffff808211156128a357600080fd5b818501915085601f8301126128b757600080fd5b8151818111156128c9576128c9612862565b8060051b604051601f19603f830116810181811085821117156128ee576128ee612862565b60405291825284820192508381018501918883111561290c57600080fd5b938501935b8285101561292a57845184529385019392850192612911565b98975050505050505050565b84815260806020820152600061294f60808301866126b4565b6001600160a01b03949094166040830152506060015292915050565b60006020828403121561297d57600080fd5b81518015158114611e3457600080fd5b85815284602082015260a0604082015260006129ac60a08301866126b4565b6001600160a01b0394909416606083015250608001529392505050565b6000602082840312156129db57600080fd5b81356001600160601b0381168114611e3457600080fd5b600082612a0f57634e487b7160e01b600052601260045260246000fd5b500490565b600082821015612a2657612a266127e3565b500390565b6000816000190483118215151615612a4557612a456127e3565b500290565b60008251612a5c8184602087016124c3565b919091019291505056fea2646970667358221220f45ded037bd10bee9427c7a7b6c39e7bb2745e34d52577b230c7d0bb8d2b247764736f6c634300080a0033",
  "linkReferences": {},
  "deployedLinkReferences": {}
}